:1000000000308A001B2800002D3084008313000874
:10001000031918280130F800F701F70B0D28F80B29
:100020000C284A30F700F70B13281628800B0A28F3
:100030008A110A125A28840183131F3083058316FC
:100040001F149F141F159F1107309C003F3083120F
:10005000A1000630A2005B30A3004F30A400663040
:10006000A5006D30A6007D30A7004730A8007F3086
:10007000A9006730AA00AB01003083168500880014
:100080008501F73083128500AB012B08093C031C66
:100090005E2821302B07840083130008FF3AAC0050
:1000A0008316880183122C0888000230AC00963039
:1000B000AD000428AC0B5728AB0A45284428630040
:02400E00713F00
:00000001FF
;PIC16F877A
;CRC=47F2  CREATED="18-Dic.-16 19:42"
