:1000000005308A00332D0000FF00030E8301A1009C
:100010000A08A0008A010408A2007708A300780853
:10002000A4007908A5007A08A600831383128C30F7
:100030008400801C1D288C182E2822088400230888
:10004000F7002408F8002508F9002608FA0020081F
:100050008A00210E8300FF0E7F0E09008A110A120A
:100060004D280A108A100A11820728340C340134F2
:1000700006341230CA02031C4C284A308400831311
:10008000FC3080050310800C800C000803194C28FC
:100090004A280000800B49280800291029088316E7
:1000A0008700831207142808C900C90AC903031965
:1000B0005D28FF30CA00392056282708CA00392099
:1000C0002910290883168700831207108C108A11C3
:1000D0000A121D28CC30E237D42243008030831628
:1000E00087008312A9007830F800063892004E305D
:1000F000831692008C14C03083128B048A110A126A
:10010000452D2F30840083130008031995280130F2
:10011000F800F701F70B8A28F80B89284A30F70016
:10012000F70B90289328800B8728080036189A2808
:1001300008129B280816831608128312B618A228E4
:100140008812A32888168316881283123619AA28C3
:100150000813AB280817831608138312B619B228A0
:100160008813B32888178316881300008312851517
:1001700083168511BB28831285118316851183127E
:100180000800B7018316081600308312081A0130E0
:10019000B7048316881600308312881A0130F700DE
:1001A0000310F70D7708B704831608170030831281
:1001B000081B0130F700F70DF70DFC30F705770845
:1001C000B7048316881700308312881B0130F700AC
:1001D000F70DF70DF70DF830F7057708B704370876
:1001E000F800080083168511851205118312851207
:1001F00083168512081688160817881783120515A6
:1002000083160511000083128515831685110000E1
:100210008312C1207808B60085118316851100006D
:10022000831285158316851100008312C12078087A
:10023000B5008511831685110812881208138813DA
:100240008312360EF700F030F70577083504F80012
:100250007808B500B51F2E298316FA28B308031DA8
:1002600033298512342985168316851200008312DE
:10027000051183160511000083128511831685115F
:100280008312340EB5000F30B5053508B600962040
:1002900034080F39B500B6009620080083160812FE
:1002A000881208138813851185120511831285128F
:1002B0008316851283120511831605118312851189
:1002C000831685110F308312AF0081200130AB00FF
:1002D0002B08033C031C76290330B6009620B60198
:1002E00096200530AF008120AB0A68290230B600A5
:1002F0009620B60196200530AF008120AB012B0877
:10030000033C031C8C292B083120AC00B3012C08C2
:10031000B400F220AB0A7F298A110A12462D300B55
:10032000922995294030B1009629B10101302F0260
:10033000B10731088038B200B3013208B400F220AE
:1003400008002E08073A0319AF290B3A0319B429FC
:10035000063A0319BC29023A0319C229C7290130F8
:10036000AF00B0008F21CD29B3010130B400F220DD
:100370000230AF008120CD290130AF000230B00043
:100380008F21CD29B3011030B400F220CD290130E6
:10039000B3002E08B400F220CD29080083160317FD
:1003A0008C170C140000000083120C087F3903190D
:1003B000122A0313AB0003170D080313AC00031735
:1003C0000F080313AD002B08AE00A1212C08031762
:1003D0008D0003132D0803178F0083168C170C1440
:1003E0000000000083120C0D0E0D7F390319122A34
:1003F0000313AB0003170D080313AC0003170F081A
:100400000313AD002B08AE00A1212C0803178D00AB
:1004100003132D0803178F008D0A03198F0A031386
:10042000CE29031703138A110A124D2D8030831829
:10043000BE06C301C4013A08C2003E08C20639081C
:100440000319062BC100F7003D0803190F2BC10249
:100450000319AB2A031C692A3E08C700C7173F08C7
:10046000C6004008C500C4010310C70CC60CC50C6B
:10047000C40CC10B332AC21F402A4314232B431040
:10048000411043163C3084008313382B4312C21BA7
:10049000532A411C5E2AC70CC60CC50CC40CF70AB3
:1004A00003191E2B5E2AC71B612A0310C40DC50D3C
:1004B000C60DC70DF70303191E2B532A4317CB2A6A
:1004C00043133A08C200C21F672AC717172BC71366
:1004D000172B3D08C100F7003908C1023A08C700D0
:1004E000C7173B08C6003C08C500C4010310C70C71
:1004F000C60CC50CC40CC10B752AC21F822AC314BA
:10050000232BC3104110C316403084008313382BB3
:10051000C312C21B952A411CA02AC70CC60CC50CCD
:10052000C40CF70A03191E2BA02AC71BA32A031009
:10053000C40DC50DC60DC70DF70303191E2B952A53
:10054000C317CB2AC3133E08C200C21FA92AC7176C
:10055000172BC713172B3E08C700C7173F08C60045
:100560004008C500C21FB82AC7134315232B4311E7
:10057000C40141103C3084008313382BC21BE12A94
:100580003A08C200411CCB2AC70CC60CC50CC40CCF
:10059000F70A03191E2BC41FDC2AC50A031DDC2A17
:1005A000C60A031DDC2AC70A031DDC2AC70CC60CB9
:1005B000C50CF70A03191E2B431B602AC31BA22A72
:1005C000002B8030C706C71FE92A232B3E08C20034
:1005D000F62A3A08C200C708031DF62AC608031DFA
:1005E000F62AC508031DF62AF701172BC71B002B97
:1005F0000310C40DC50DC60DC70DF70BF62A1E2B33
:10060000C21F042BC717172BC713172B3D08F70062
:100610003E08C7003F08C6004008C500172B390830
:10062000F7003A08C7003B08C6003C08C500470869
:10063000F8004608F9004508FA00562BF701F801C2
:10064000F901FA01562BC401C509C609C709C40935
:10065000C40A031D312BC50A031D312BC60A031919
:10066000C70A43183F2AC318812A4319B72AE62A22
:100670000008C507031C422BC60A031D422BC70AEC
:100680000319411484030008C607031C4A2BC70A38
:100690000319411484030008801F803AC707031818
:1006A0004114431A462AC31A882ABE2A0800831412
:1006B0003208BC003108BB003008BA002F08B9006E
:1006C000C001BF01BE01BD0116227708B500780840
:1006D000B6007908B7007A08B8003808BC003708B7
:1006E000BB003608BA003508B900C0018030BF0031
:1006F0006D30BE008930BD0039080319EC2BC100F4
:100700003D080319EC2BC10703188D2B7F30C10264
:10071000031CEC2B0319EC2B912B8130C107031820
:10072000EC2B4108F700F801F901FA013A08C5007D
:10073000C5173B08C4003C08C3001830C100C20103
:10074000431CBA2B4008FA07031CAC2BF90A031D03
:10075000AC2BF80A0319C2173F08F907031CB32B87
:10076000F80A0319C2173E08BB00BB173B08F8077D
:100770000318C217C20DF80CF90CFA0CC50CC40C06
:10078000C30C0310C10B9F2B0130F7070318EC2B90
:10079000F81BD12BC50DFA0DF90DF80DF703031950
:1007A000EC2BC51FE22BFA0A031DE22BF90A031DED
:1007B000E22BF80A031DE22BF80CF90CFA0CF70AED
:1007C0000319EC2B3A08C2003E08C206C21FEA2BEE
:1007D000F817F02BF813F02BF701F801F901FA01E3
:1007E0007708B5007808B6007908B7007A08B8002D
:1007F0003808BC003708BB003608BA003508B90015
:10080000C001BF013430BE008630BD003908031975
:10081000CB2CC5003D080319CB2CC502031C152C9D
:100820007F30C5070318CB2C1B2C8130C502031C5D
:10083000CB2C0319CB2C4508F700F801F901FA017C
:10084000C4013A08C300C3173B08C2003C08C100FA
:100850001930C5004008C10203183E2C0130C20205
:1008600003183E2CC30203183E2CC40203183E2C6E
:10087000C40AC30AC20A4008C107702C3F08C2025A
:100880000318592C0130C3020318592CC402031851
:10089000592CC40AC30A3F08C2074008C107031CF9
:1008A000702CC20A031D702CC30A031D702CC40ACD
:1008B000702C3E088038C30203186F2C0130C4022C
:1008C00003186F2CC40A3E088038C3073F08C207CC
:1008D000031C4D2CC30A031D4D2CC40A4D2C7A1445
:1008E000C50B732C7E2C0310C10DC20DC30DC40D9E
:1008F0000310FA0DF90DF80DC60D2A2C461C862C96
:100900000310F80CF90CFA0CC60C892CF703031928
:10091000CB2CC61BB22C0310C10DC20DC30DC40DD0
:100920004008C10203189E2C0130C20203189E2CFD
:10093000C30203189E2CC402031CC12C3F08C20230
:100940000318A92C0130C3020318A92CC402031CEC
:10095000C12C3E088038C3020318B22C0130C402F7
:10096000031CC12CFA0A031DC12CF90A031DC12C5A
:10097000F80A031DC12CF70A0319CB2CF80CF90C4B
:10098000FA0C3A08C5003E08C506C51FC92CF81761
:10099000CF2CF813CF2CF701F801F901FA017708F1
:1009A000B5007808B6007908B7007A08B800831057
:1009B0003808BC003708BB003608BA003508B90053
:1009C000C001BF012F30BE008830BD0016227A085A
:1009D000B8007908B7007808B6007708B5008E30FF
:1009E000F7003508F7023608F9003708F800F9175C
:1009F000F7080319062D0310F908031D022DF80846
:100A00000319062DF90CF80CF70BFB2CB61F0D2D56
:100A1000F809F909F80A0319F90A7908B4007808FD
:100A2000B3003408A8003308A70008008E30F70090
:100A30002C08F8002B08F900FA01F808031D2A2DEC
:100A40007908F800F9010830F702F808031D2A2D8B
:100A5000F701322D0310F81B312DF90DF80DF703B6
:100A60002A2DF8130800840183131F308305A80181
:100A7000A701FF30A90083161F149F141F159F1193
:100A800007309C008312AA016E284E296A30031792
:100A90008D0000308F000313CE29B201B101B001E7
:100AA000AF015723AA012A08B43C031C702DAC01E6
:100AB0002A08AB0016257708AB007808AC00790847
:100AC000AD007A08AE00B2007908B1007808B00035
:100AD0007708AF0057230A30AF008120AA0A532DB0
:100AE000B430AA00AA0803198E2DAC012A08AB0065
:100AF00016257708AB007808AC007908AD007A08B5
:100B0000AE00B2007908B1007808B0007708AF00F5
:100B100057230A30AF008120AA03722D522D6300A3
:02400E00713F00
:00000001FF
;PIC16F877A
;CRC=E8E3  CREATED="18-Dic.-16 18:05"
