:1000000000308A0048280000FF00030E8301A10091
:100010000A08A0008A010408A2007708A300780853
:10002000A4007908A5007A08A600831383128C30F7
:100030008400801C1D288C182E2822088400230888
:10004000F7002408F8002508F9002608FA0020081F
:100050008A00210E8300FF0E7F0E09008A110A120A
:100060003128831606100130831286068C108A11FF
:100070000A121D280830F800053892007C308316DB
:1000800092008C14C03083128B048A110A125728F4
:10009000840183131F30830583161F149F141F15BB
:1000A0009F1107309C000030860083123A285728A1
:0200B0006300EB
:02400E00713F00
:00000001FF
;PIC16F877A
;CRC=90BE  CREATED="18-Dic.-16 17:36"
