:1000000002308A00872A0000FF00030E8301A1004E
:100010000A08A0008A010408A2007708A300780853
:10002000A4007908A5007A08A600831383120B1E8A
:100030001B288B182C28220884002308F70024088A
:10004000F8002508F9002608FA0020088A00210E89
:100050008300FF0E7F0E09008A110A1237280A104A
:100060008A100A11820728340C3401340634013016
:10007000A7008B108A110A121B28CC30E237D43229
:10008000632865397500C3377537741DA53A0000BC
:100090008C244E2A4529D22A502A00002E30840072
:1000A00083130008031962280130F800F701F70BE9
:1000B0005728F80B56284A30F700F70B5D286028C0
:1000C000800B54280800351867280812682808167D
:1000D000831608128312B5186F28881270288816A4
:1000E0008316881283123519772808137828081781
:1000F000831608138312B5197F2888138028881760
:1001000083168813000083128515831685118828AD
:10011000831285118316851183120800B601831698
:10012000081600308312081A0130B60483168816A8
:1001300000308312881A0130F7000310F70D77089A
:10014000B6048316081700308312081B0130F7002D
:10015000F70DF70DFC30F7057708B60483168817FE
:1001600000308312881B0130F700F70DF70DF70DF3
:10017000F830F7057708B6043608F800080083164B
:1001800085118512051183128512831685120816B2
:1001900088160817881783120515831605110000A5
:1001A0008312851583168511000083128E2078082E
:1001B000B5008511831685110000831285158316FD
:1001C0008511000083128E207808B40085118316F3
:1001D000851108128812081388138312350EF70050
:1001E000F030F70577083404F8007808B400B41F3D
:1001F000FB288316C728B208031D00298512012990
:1002000085168316851200008312051183160511C9
:10021000000083128511831685118312330EB400FA
:100220000F30B4053408B500632033080F39B4002B
:10023000B50063200800831608128812081388137B
:10024000851185120511831285128316851283127A
:1002500005118316051183128511831685110F3040
:100260008312AE004E200130A9002908033C031C74
:1002700043290330B5006320B50163200530AE008B
:100280004E20A90A35290230B5006320B50163204C
:100290000530AE004E20A9012908033C031C592952
:1002A00029082F20AA00B2012A08B300BF20A90AFA
:1002B0004C298A110A12952A8316011383120B16F0
:1002C000C0308B048A110A12962A2F0B68296B29D9
:1002D0004030B0006C29B00101302E02B007300868
:1002E0008038B100B2013108B300BF2008002D08EA
:1002F000073A031985290B3A03198A29063A031983
:100300009229023A031998299D290130AE00AF00C5
:100310006521A329B2010130B300BF200230AE0035
:100320004E20A3290130AE000230AF006521A32981
:10033000B2011030B300BF20A3290130B2002D0854
:10034000B300BF20A3290800831603178C170C14D1
:100350000000000083120C087F390319E8290313F9
:10036000A90003170D080313AA0003170F080313AE
:10037000AB002908AD0077212A0803178D0003136D
:100380002B0803178F0083168C170C140000000035
:1003900083120C0D0E0D7F390319E8290313A900F0
:1003A00003170D080313AA0003170F080313AB006C
:1003B0002908AD0077212A0803178D0003132B08A5
:1003C00003178F008D0A03198F0A0313A42903173B
:1003D00003130800831603178C170C140000000089
:1003E0000318192A83120C087F390313AA00031774
:1003F0000D080313AB0003170F080313AC002A0802
:10040000AD0077212B0803178D0003132C08031769
:100410008F0083168C170C14000000008312031346
:10042000A90B132A162A83160317192A382A8316AA
:10043000031783120C0D0E0D7F390313AA00031747
:100440000D080313AB0003170F080313AC002A08B1
:10045000AD0077212B0803178D0003132C08031719
:100460008F008D0A03198F0A03100313A90BEA29C1
:100470008A110A12B92A2C08F8012B020318432A00
:100480002B08F7004F2AF7010830AD00AB0DF70D30
:100490002C0877020318F700F80DAD0B462A080068
:1004A00078082908AB006430AC003B227708A9002B
:1004B00078083030031D632AAA1C6A2AAA196A2AFE
:1004C0002A1A2030662AAA112A122A14F807780854
:1004D000AD0077212908AB000A30AC003B22770839
:1004E000A90078083030031D7B2AAA197F2A2A1C0C
:1004F0007F2A2A1A2030F8077808AD00772130309B
:10050000A9072908AD0077218A110A12BE2A8401A1
:1005100083131F308305A70183161F149F141F1513
:100520009F1107309C0083121B295C290C30AD0001
:1005300077213D3003178D0000308F000313A42175
:100540000230A900FA30AE004E20A90BA22A0C30CE
:10055000AD007721A8012808643C031CDE2A433043
:1005600003178D0000308F00031006300313A9001D
:10057000EA292808A9001B30AA00502A0430A90043
:10058000FA30AE004E20A90BC02A0C30AD00772106
:10059000270BDC2A483003178D0000308F0003132F
:1005A000A4210230A9009630AE004E20A90BD32A18
:1005B0000C30AD007721A701A80AAB2AAA2A630054
:02400E00713F00
:00000001FF
;PIC16F877A
;CRC=E271  CREATED="18-Dic.-16 20:02"
