:1000000002308A007C2A00000A108A100A11820736
:1000100028340C3401340634CC20C227D4224300C7
:100020000C22753A791DA53A00000C22753A791D0B
:10003000A53A00000030831687008312A000F80064
:10004000063892003E308316920083122011200859
:1000500083168700831207110C3097008A110A1249
:100060008D2A2730840083130008031945280130A6
:10007000F800F701F70B3A28F80B39284A30F70057
:10008000F70B40284328800B372808002E184A28F1
:1000900008124B280816831608128312AE1852282D
:1000A0008812532888168316881283122E195A280C
:1000B00008135B280817831608138312AE196228E9
:1000C0008813632888178316881300008312851508
:1000D000831685116B28831285118316851183126F
:1000E0000800AF018316081600308312081A013089
:1000F000AF048316881600308312881A0130F70087
:100100000310F70D7708AF04831608170030831229
:10011000081B0130F700F70DF70DFC30F7057708E5
:10012000AF048316881700308312881B0130F70054
:10013000F70DF70DF70DF830F7057708AF042F0826
:10014000F8000800831685118512051183128512A7
:100150008316851208168816081788178312051546
:100160008316051100008312851583168511000082
:10017000831271207808AE00851183168511000066
:10018000831285158316851100008312712078086B
:10019000AD00851183168511081288120813881383
:1001A00083122E0EF700F030F70577082D04F800C3
:1001B0007808AD00AD1FDE288316AA28AB08031D02
:1001C000E3288512E4288516831685120000831221
:1001D0000511831605110000831285118316851100
:1001E00083122C0EAD000F30AD052D08AE00462059
:1001F0002C080F39AD00AE00462008008316081207
:10020000881208138813851185120511831285122F
:100210008316851283120511831605118312851129
:10022000831685110F308312A70031200130A20000
:100230002208033C031C26290330AE004620AE01F1
:1002400046200530A7003120A20A18290230AE004E
:100250004620AE0146200530A7003120A201220829
:10026000033C031C3C2922080420A300AB01230803
:10027000AC00A220A20A2F298A110A128E2A280B6A
:10028000422945294030A9004629A9010130270209
:10029000A90729088038AA00AB012A08AC00A220CF
:1002A00008002608073A03195F290B3A0319642945
:1002B000063A03196C29023A031972297729013089
:1002C000A700A8003F217D29AB010130AC00A2208E
:1002D0000230A70031207D290130A7000230A8009C
:1002E0003F217D29AB011030AC00A2207D290130D7
:1002F000AB002608AC00A2207D2908008316031756
:100300008C170C140000000083120C087F390319AD
:10031000C2290313A20003170D080313A300031738
:100320000F080313A4002208A60051212308031775
:100330008D000313240803178F0083168C170C14E9
:100340000000000083120C0D0E0D7F390319C22925
:100350000313A20003170D080313A30003170F08CC
:100360000313A4002208A6005121230803178D00BF
:100370000313240803178F008D0A03198F0A031330
:100380007E29031703138A110A12992A230CFA00F3
:10039000220CF900FA0CF90C7908950022080239B0
:1003A000A400A5010310250CFA00240CF900F800A4
:1003B00097127818971622080139F700FA011712D8
:1003C000771817160800831603178C170C140000F3
:1003D00000000318122A83120C087F390313A300AC
:1003E00003170D080313A40003170F080313A50038
:1003F0002308A6005121240803178D0003132508A4
:1004000003178F0083168C170C1400000000831252
:100410000313A20B0C2A0F2A83160317122A312A60
:100420008316031783120C0D0E0D7F390313A300DF
:1004300003170D080313A40003170F080313A500E7
:100440002308A6005121240803178D000313250853
:1004500003178F008D0A03198F0A03100313A20BD1
:10046000E32908002508F801240203183A2A240881
:10047000F700462AF7010830A600A40DF70D25085D
:1004800077020318F700F80DA60B3D2A080078083C
:100490002208A4006430A50032227708A200780860
:1004A0003030031D5A2AA31C612AA319612A231A7A
:1004B00020305D2AA31123122314F8077808A60020
:1004C00051212208A4000A30A50032227708A20098
:1004D00078083030031D722AA319762A231C762A45
:1004E000231A2030F8077808A60051213030A207DF
:1004F0002208A60051210800840183131F308305C0
:10050000FF30A00083161F149F141F159F11073082
:100510009C007D308312A1001A28FE280330831628
:1005200086000C30831203178D0000308F000313F8
:100530007E298316061483120618B92A0230A200F7
:100540009630A7003120A20BA02AA10AA3012108FE
:10055000A200C621103003178D0000308F00031059
:1005600006300313A200E3212108A2001B30A300E0
:1005700047228316861483128618D92A0230A200D5
:100580009630A7003120A20BC02AA103A3012108A5
:10059000A200C621153003178D0000308F00031014
:1005A00006300313A200E3212108A2001B30A300A0
:0605B0004722992A6300B6
:02400E00713F00
:00000001FF
;PIC16F877A
;CRC=8631  CREATED="18-Dic.-16 18:07"
