:1000000002308A004E2A00000A108A100A11820764
:1000100028340C3401340634CC30E237D43263282F
:1000200065397500402661316F2AE531D032F23AE8
:100030000001C3376E3A6139BA1275002730840067
:1000400083130008031932280130F800F701F70B79
:100050002728F80B26284A30F700F70B2D283028E0
:10006000800B242808002E18372808123828081674
:10007000831608128312AE183F288812402888166B
:100080008316881283122E19472808134828081748
:10009000831608138312AE194F2888135028881727
:1000A000831688130000831285158316851158283E
:1000B000831285118316851183120800AF01831600
:1000C000081600308312081A0130AF048316881610
:1000D00000308312881A0130F7000310F70D7708FB
:1000E000AF048316081700308312081B0130F70095
:1000F000F70DF70DFC30F7057708AF048316881766
:1001000000308312881B0130F700F70DF70DF70D53
:10011000F830F7057708AF042F08F80008008316B9
:100120008511851205118312851283168512081612
:100130008816081788178312051583160511000005
:100140008312851583168511000083125E207808BE
:10015000AE00851183168511000083128515831664
:100160008511000083125E207808AD00851183168A
:100170008511081288120813881383122E0EF700B7
:10018000F030F70577082D04F8007808AD00AD1FB2
:10019000CB2883169728AB08031DD0288512D128B9
:1001A000851683168512000083120511831605112A
:1001B0000000831285118316851183122C0EAD0069
:1001C0000F30AD052D08AE0033202C080F39AD00DF
:1001D000AE00332008008316081288120813881313
:1001E00085118512051183128512831685128312DB
:1001F00005118316051183128511831685110F30A1
:100200008312A7001E200130A2002208033C031C19
:1002100013290330AE003320AE0133200530A70090
:100220001E20A20A05290230AE003320AE01332081
:100230000530A7001E20A2012208033C031C292927
:1002400022080420A300AB012308AC008F20A20ADF
:100250001C298A110A125B2A280B2F2932294030C7
:10026000A9003329A90101302702A90729088038EC
:10027000AA00AB012A08AC008F2008002608073A24
:1002800003194C290B3A03195129063A0319592924
:10029000023A03195F2964290130A700A8002C2124
:1002A0006A29AB010130AC008F200230A7001E206C
:1002B0006A290130A7000230A8002C216A29AB016D
:1002C0001030AC008F206A290130AB002608AC004A
:1002D0008F206A290800831603178C170C1400005E
:1002E000000083120C087F390319AF290313A20001
:1002F00003170D080313A30003170F080313A4002B
:100300002208A6003E21230803178D0003132408AA
:1003100003178F0083168C170C1400000000831243
:100320000C0D0E0D7F390319AF290313A20003171B
:100330000D080313A30003170F080313A4002208DA
:10034000A6003E21230803178D000313240803177A
:100350008F008D0A03198F0A03136B2903170313E8
:100360000800831603178C170C14000000000318F4
:10037000E02983120C087F390313A30003170D082B
:100380000313A40003170F080313A5002308A600F6
:100390003E21240803178D000313250803178F003F
:1003A00083168C170C140000000083120313A20B99
:1003B000DA29DD2983160317E029FF29831603179D
:1003C00083120C0D0E0D7F390313A30003170D08C4
:1003D0000313A40003170F080313A5002308A600A6
:1003E0003E21240803178D000313250803178F00EF
:1003F0008D0A03198F0A03100313A20BB1298A1166
:100400000A128B2A2508F801240203180A2A240854
:10041000F700162AF7010830A600A40DF70D2508ED
:1004200077020318F700F80DA60B0D2A08007808CC
:100430002208A4006430A50002227708A2007808F0
:100440003030031D2A2AA31C312AA319312A231A6A
:1004500020302D2AA31123122314F8077808A600B0
:100460003E212208A4000A30A50002227708A2003B
:1004700078083030031D422AA319462A231C462A35
:10048000231A2030F8077808A6003E213030A20752
:100490002208A6003E218A110A12902A84018313A1
:1004A0001F30830583161F149F141F159F110730DB
:1004B0009C008312EB280C30A6003E210C30031761
:1004C0008D0000308F0003136B210230A200FA3040
:1004D000A7001E20A20B672AA1012108643C031C6F
:1004E0009C2A0130A700A8002C21123003178D0090
:1004F00000308F0003136B210130A7000230A800E9
:100500002C21193003178D0000308F0003100730A5
:100510000313A200B1292108A2001B30A300172A4F
:100520000230A2009630A7001E20A20B922A0C30A7
:0C053000A6003E21A10A6D2A6C2A63007F
:02400E00713F00
:00000001FF
;PIC16F877A
;CRC=1ECC  CREATED="18-Dic.-16 19:48"
