:1000000000308A004C280000FF00030E8301A1008D
:100010000A08A0008A010408A2007708A300780853
:10002000A4007908A5007A08A600831383128C30F7
:100030008400001C1D280C182E2822088400230888
:10004000F7002408F8002508F9002608FA0020081F
:100050008A00210E8300FF0E7F0E09008A110A120A
:10006000312883160610013083128606FF308F0078
:1000700083308E000C108A110A121D2887309000E0
:10008000FF308F0083308E0083160C14C030831233
:100090008B048A110A125B28840183131F308305A5
:1000A00083161F149F141F159F1107309C000030EA
:0A00B000860083123E285B286300DF
:02400E00713F00
:00000001FF
;PIC16F877A
;CRC=8F72  CREATED="18-Dic.-16 17:36"
