:1000000000308A0019280000223084008313000881
:10001000031918280130F800F701F70B0D28F80B29
:100020000C284A30F700F70B13281628800B0A28F3
:100030000800840183131F30830583161F149F1447
:100040001F159F1107309C000F3086008113003070
:1000500088008801FF3083128800831606148312FB
:1000600006183E280230A1009630A2000420A10B01
:1000700034288316081001308312880683168614EC
:10008000831286184F280230A1009630A200042067
:10009000A10B452883168810023083128806831628
:1000A00006158312061960280230A1009630A200BE
:1000B0000420A10B562883160811043083128806E9
:1000C000831686158312861971280230A100963096
:1000D000A2000420A10B6728831688110830831220
:0600E00088062D286300D4
:02400E00713F00
:00000001FF
;PIC16F877A
;CRC=C3D3  CREATED="18-Dic.-16 18:33"
