:1000000004308A005B2C00000A108A100A11820753
:1000100028340C3401340634CC30E237D43263282F
:1000200065397500402661316F2AE531D032F23AE8
:100030000001E434733ABD12660001308316870074
:100040008312A000A0102008831687008312871057
:10005000B53090008A110A126A2C3530840083135F
:100060000008031941280130F800F701F70B362882
:10007000F80B35284A30F700F70B3C283F28800B57
:10008000332808003C18462808124728081683160B
:1000900008128312BC184E2888124F28881683161F
:1000A000881283123C1956280813572808178316FC
:1000B00008138312BC195E2888135F2888178316DB
:1000C0008813000083128515831685116728831213
:1000D00085118316851183120800BD018316081649
:1000E00000308312081A0130BD04831688160030D0
:1000F0008312881A0130F7000310F70D7708BD044A
:100100008316081700308312081B0130F700F70D23
:10011000F70DFC30F7057708BD048316881700300B
:100120008312881B0130F700F70DF70DF70DF8303B
:10013000F7057708BD043D08F8000800831685110F
:1001400085120511831285128316851208168816EA
:1001500008178817831205158316051100008312EE
:10016000851583168511000083126D207808BC0068
:10017000851183168511000083128515831685115C
:10018000000083126D207808BB008511831685114D
:10019000081288120813881383123C0EF700F030FF
:1001A000F70577083B04F8007808BB00BB1FDA2886
:1001B0008316A628B908031DDF288512E0288516B6
:1001C00083168512000083120511831605110000A5
:1001D000831285118316851183123A0EBB000F30EE
:1001E000BB053B08BC0042203A080F39BB00BC00ED
:1001F00042200800831608128812081388138511FC
:10020000851205118312851283168512831205113A
:100210008316051183128511831685110F30831201
:10022000B5002D200130A7002708033C031C22291C
:100230000330BC004220BC0142200530B5002D2017
:10024000A70A14290230BC004220BC01422005301C
:10025000B5002D20A7012708033C031C38292708D7
:100260000420A800B9012808BA009E20A70A2B295B
:100270008A110A126B2C360B3E2941294030B700F7
:100280004229B70101303502B70737088038B80076
:10029000B9013808BA009E2008003408073A03194B
:1002A0005B290B3A03196029063A03196829023AB7
:1002B00003196E2973290130B500B6003B21792955
:1002C000B9010130BA009E200230B5002D207929F5
:1002D0000130B5000230B6003B217929B901103058
:1002E000BA009E2079290130B9003408BA009E2056
:1002F00079290800831603178C170C1400000000DE
:1003000083120C087F390319BE290313A7000317B2
:100310000D080313A80003170F080313A9002708EB
:10032000B4004D21280803178D0003132908031773
:100330008F0083168C170C140000000083120C0D24
:100340000E0D7F390319BE290313A70003170D08EB
:100350000313A80003170F080313A9002708B4000C
:100360004D21280803178D000313290803178F0058
:100370008D0A03198F0A03137A2903170313080040
:10038000A010200883168700831287140630F70018
:10039000F70BC8290000A0102008831687008312DD
:1003A000871020142008831687008312071CD12988
:1003B0008F018E0120142008831687008312071CEA
:1003C000002A0F08FA000E08F7000F087A02031D32
:1003D000E1297708A7007A08A80028080A3C031832
:1003E000FF29FF3A031DF8292708B83C0318FF2905
:1003F0000B30A800B830A7008F018E01002ADA293F
:100400008F018E012708F8002808F9008A110A12C6
:10041000802C34080319792ABC0038080319792A7A
:10042000BC0703181A2A7F30BC02031C792A03195F
:10043000792A1E2A8130BC070318792A3C08F70064
:10044000F801F901FA013508C000C0173608BF00ED
:100450003708BE001830BC00BD013E1C472A3B08CF
:10046000FA07031C392AF90A031D392AF80A031965
:10047000BD173A08F907031C402AF80A0319BD17EB
:100480003908B600B6173608F8070318BD17BD0DB2
:10049000F80CF90CFA0CC00CBF0CBE0C0310BC0B12
:1004A0002C2A0130F7070318792AF81B5E2AC00DA1
:1004B000FA0DF90DF80DF7030319792AC01F6F2AF9
:1004C000FA0A031D6F2AF90A031D6F2AF80A031D91
:1004D0006F2AF80CF90CFA0CF70A0319792A350877
:1004E000BD003908BD06BD1F772AF8177D2AF8130D
:1004F0007D2AF701F801F901FA0108002808AE0089
:100500002708AD008E30F7002E08F8002D08F900FE
:10051000FA01F808031D962A7908F800F901083055
:10052000F702F808031D962AF7019E2A0310F81B0C
:100530009D2AF90DF80DF703962AF8137A08B700EB
:100540007908B6007808B5007708B4009630BB008B
:100550004330BA000B30B9007C30B800092277086C
:10056000AD007808AE007908AF007A08B000B70097
:100570007908B6007808B5007708B4006630BB008B
:10058000BA000630B9007F30B80009227A08AC0002
:100590007908AB007808AA007708A9002908F700B5
:1005A0002A08F8002B08F9002C08FA008A110A1210
:1005B000892C831603178C170C14000000000318F5
:1005C000082B83120C087F390313A80003170D08AA
:1005D0000313A90003170F080313AA002808B40087
:1005E0004D21290803178D0003132A0803178F00D4
:1005F00083168C170C140000000083120313A70B42
:10060000022B052B83160317082B272B83160317A2
:1006100083120C0D0E0D7F390313A80003170D086C
:100620000313A90003170F080313AA002808B40036
:100630004D21290803178D0003132A0803178F0083
:100640008D0A03198F0A03100313A70BD92A8A11E5
:100650000A12AB2C83182F2B3C3084008313F70134
:10066000F801F901FA01BC01BD01BE01BF013B085F
:100670003A043904380403196D2B2030C0000310EC
:10068000B40DB50DB60DB70DBC0DBD0DBE0DBF0D36
:100690003B083F02031D562B3A083E02031D562B12
:1006A00039083D02031D562B38083C02031C672BFA
:1006B0003808BC023908031C390FBD023A08031C74
:1006C0003A0FBE023B08031C3B0FBF020314F70D99
:1006D000F80DF90DFA0DC00B3F2B3C088000840A81
:1006E0003D088000840A3E088000840A3F0880009C
:1006F00008000408AC002B08AE000319982B2A0848
:10070000B7002908B6002808B5002708B400BB01C7
:10071000BA012030B9008230B80009227A08AA0054
:100720007908A9007808A8007708A700AE0B7F2BEE
:100730002A08B7002908B6002808B5002708B40021
:100740003408B63CB400FA013508B800B5170310F8
:10075000B50CB60CB70CFA0CF90CF80CF70CB40B82
:10076000A72BB81FBE2BF709F809F909FA09F70AF0
:100770000319F80A0319F90A0319FA0A7A08AA00F0
:100780007908A9007808A8007708A700AA1FD52B28
:10079000AC03AC16A709A809A909AA09A70A031955
:1007A000A80A0319A90A0319AA0A3B30B3009A3010
:1007B000B200CA30B100B0010A30AE002B080319F4
:1007C000AC0A83142730840083132A08B700290851
:1007D000B6002808B5002708B4003308BB0032086B
:1007E000BA003108B9003008B8002A237808F708A1
:1007F000031D0D2C2B0A2E0203190D2C2C08031996
:100800000F2C0F392E020319072C03183F2CAC1B99
:100810003F2C2C1B0F2C20303B2C2030AC05AC1E69
:100820001D2CAC122B08031DAC037708AC002D3037
:10083000B4004D212C08F700AC012B082E02031D3B
:100840002B2C7708AC002E30B4004D212C08F7007B
:100850002030AC0500303030AC1E3B2CAC122B08E5
:10086000031DAC037708AC002D30B4004D212C08DB
:10087000F700AC013030F7077708B4004D21831042
:100880003308B7003208B6003108B5003008B400AC
:10089000BB01BA01B9010A30B8002A237A08B300B3
:1008A0007908B2007808B1007708B000AE0BE12BF0
:1008B0008A110A12B82C840183131F308305FF307C
:1008C000A00083161F149F141F159F1107309C0052
:1008D00083121D28FA280C30B4004D210C30031768
:1008E0008D0000308F0003137A210230A700FA3008
:1008F000B5002D20A70B772C0C30B4004D21C0295A
:100900007908A2007808A1002208A8002108A70001
:100910007E2A7A08A6007908A5007808A40077083E
:10092000A3000130B500B6003B21123003178D0043
:1009300000308F0003137A210130B5000230B60079
:100940003B21193003178D0000308F000310053054
:100950000313A700D92A893084002608AA00250895
:10096000A9002408A8002308A7000230AB00792BB7
:100970000230A7009630B5002D20A70BBA2C0C3002
:08098000B4004D217F2C63003F
:02400E00713F00
:00000001FF
;PIC16F877A
;CRC=ACAF  CREATED="18-Dic.-16 17:45"
