:1000000002308A008E2A00000A108A100A11820724
:1000100028340C34013406340A108A100A1182077D
:100020003134323433344134343435343634423478
:1000300037343834393443342A3430342334443474
:10004000CC30E237D43263286539750040266131FF
:100050006F2AE531D032F23A0001F4326336611D85
:10006000A53100002A3084008313000803194628B4
:100070000130F800F701F70B3B28F80B3A284A301B
:10008000F700F70B41284428800B38280800311866
:100090004B2808124C280816831608128312B11830
:1000A000532888125428881683168812831231190F
:1000B0005B2808135C280817831608138312B119EC
:1000C0006328881364288817831688130000831216
:1000D0008515831685116C28831285118316851169
:1000E00083120800B2018316081600308312081A22
:1000F0000130B2048316881600308312881A01304A
:10010000F7000310F70D7708B204831608170030C4
:100110008312081B0130F700F70DF70DFC30F705CF
:100120007708B2048316881700308312881B0130C9
:10013000F700F70DF70DF70DF830F7057708B20463
:100140003208F80008008316851185120511831204
:1001500085128316851208168816081788178312C9
:100160000515831605110000831285158316851168
:100170000000831272207808B10085118316851162
:1001800000008312851583168511000083127220EA
:100190007808B0008511831685110812881208139B
:1001A00088138312310EF700F030F705770830041A
:1001B000F8007808B000B01FDF288316AB28AE081F
:1001C000031DE4288512E528851683168512000094
:1001D0008312051183160511000083128511831601
:1001E000851183122F0EB0000F30B0053008B1001A
:1001F00047202F080F39B000B100472008008316B0
:1002000008128812081388138511851205118312AC
:100210008512831685128312051183160511831228
:100220008511831685110F308312AA003220013008
:10023000A5002508033C031C27290330B1004720F3
:10024000B10147200530AA003220A50A1929023041
:10025000B1004720B10147200530AA003220A50196
:100260002508033C031C3D2925080420A600AE01F7
:100270002608AF00A320A50A30298A110A129F2A56
:100280008316811383128A110A12A02A2B0B492983
:100290004C294030AC004D29AC0101302A02AC079A
:1002A0002C088038AD00AE012D08AF00A320080057
:1002B0002908073A031966290B3A03196B29063AEC
:1002C00003197329023A031979297E290130AA00FA
:1002D000AB0046218429AE010130AF00A3200230DB
:1002E000AA00322084290130AA000230AB00462146
:1002F0008429AE011030AF00A32084290130AE0064
:100300002908AF00A32084290800831603178C173F
:100310000C140000000083120C087F390319C9294E
:100320000313A50003170D080313A60003170F08F6
:100330000313A7002508A9005821260803178D00DC
:100340000313270803178F0083168C170C14000063
:10035000000083120C0D0E0D7F390319C9290313F8
:10036000A50003170D080313A60003170F080313B6
:10037000A7002508A9005821260803178D0003139C
:10038000270803178F008D0A03198F0A0313852985
:10039000031703130800A501A00A2008213C031835
:1003A0002C2A2308FC3E0318EF29043E352AEF309F
:1003B0008316860083128600EF29DF3083168600BD
:1003C00083128600EF29BF308316860083128600D1
:1003D000EF297F308316860083128600EF29211CC7
:1003E000FB2906080F390F3C031DFA2921102208AA
:1003F000A500A2012B2A06080F390F3C0319262A53
:1004000006080839031D062AA6011A2A0608043917
:10041000031D0D2A0130A6001A2A06080239031D01
:10042000142A0230A6001A2A06080139031D1A2AC6
:100430000330A600260DF700F70DFC30F70577080E
:1004400023070C20F800A20021142B2AA30A23085A
:10045000043C0319A301A001FF3083168600831218
:100460002508F8008A110A12B22A0A108A140A1101
:100470008207D729DD29E329E929831603178C1779
:100480000C140000000003186C2A83120C087F393A
:100490000313A60003170D080313A70003170F0883
:1004A0000313A8002608A9005821270803178D0068
:1004B0000313280803178F0083168C170C140000F1
:1004C000000083120313A50B662A692A83160317FB
:1004D0006C2A8B2A8316031783120C0D0E0D7F399D
:1004E0000313A60003170D080313A70003170F0833
:1004F0000313A8002608A9005821270803178D0018
:100500000313280803178F008D0A03198F0A03109D
:100510000313A50B3D2A8A110A12D42A84018313DE
:100520001F30830583161F149F141F159F1107305A
:100530009C008312A0012110A201A301FF284029E1
:100540000C30A9005821203003178D0000308F0097
:10055000031385210230A500FA30AA003220A50B32
:10056000AC2ACB297808A400A4080319D72A0C3098
:10057000A90058210130AA00AB00462126300317FC
:100580008D0000308F00031385210130AA00023056
:10059000AB0046212D3003178D0000308F00031073
:1005A00006300313A5003D2A2408A9005821B12ACA
:0205B0006300E6
:02400E00713F00
:00000001FF
;PIC16F877A
;CRC=8EDF  CREATED="18-Dic.-16 19:57"
