:1000000003308A00242B0000FF00030E8301A100AF
:100010000A08A0008A010408A2007708A300780853
:10002000A4007908A5007A08A600831383128C30F7
:100030008400801E1D288C1A2E2822088400230884
:10004000F7002408F8002508F9002608FA0020081F
:100050008A00210E8300FF0E7F0E09008A110A120A
:1000600039280A108A100A11820728340C34013406
:1000700006348C1E39281A08A7008C128A110A121D
:100080001D28D3326E32A02A613974103D10252606
:100090007500D3326E32A02A613974103D102526C6
:1000A000F5060A00D232E332693B6510D530723A68
:1000B0003A10A531000083161F1383121F179F17D4
:1000C00083169F1783121F1483161F109F141F156A
:1000D0009F1583128A110A123B2B3430840083133C
:1000E0000008031981280130F800F701F70B762882
:1000F000F80B75284A30F700F70B7C287F28800B17
:10010000732808003B1886280812872808168316CB
:1001100008128312BB188E2888128F28881683161F
:10012000881283123B1996280813972808178316FC
:1001300008138312BB199E2888139F2888178316DB
:10014000881300008312851583168511A728831252
:1001500085118316851183120800BC0183160816C9
:1001600000308312081A0130BC0483168816003050
:100170008312881A0130F7000310F70D7708BC04CA
:100180008316081700308312081B0130F700F70DA3
:10019000F70DFC30F7057708BC048316881700308C
:1001A0008312881B0130F700F70DF70DF70DF830BB
:1001B000F7057708BC043C08F80008008316851191
:1001C000851205118312851283168512081688166A
:1001D000081788178312051583160511000083126E
:1001E00085158316851100008312AD207808BB00A9
:1001F00085118316851100008312851583168511DC
:1002000000008312AD207808BA008511831685118D
:10021000081288120813881383123B0EF700F0307F
:10022000F70577083A04F8007808BA00BA1F1A29C7
:100230008316E628B808031D1F2985122029851674
:100240008316851200008312051183160511000024
:1002500083128511831685118312390EBA000F306F
:10026000BA053A08BB00822039080F39BA00BB0032
:10027000822008008316081288120813881385113B
:1002800085120511831285128316851283120511BA
:100290008316051183128511831685110F30831281
:1002A000B4006D200130AA002A08033C031C622917
:1002B0000330BB008220BB0182200530B4006D20DA
:1002C000AA0A54290230BB008220BB0182200530DB
:1002D000B4006D20AA012A08033C031C78292A08CF
:1002E0003120AB00B8012B08B900DE20AA0A6B2927
:1002F0008A110A123C2B83168C16C03083128B0491
:100300008A110A123D2B350B862989294030B60007
:100310008A29B60101303402B60736088038B700A2
:10032000B8013708B900DE2008003308073A03197E
:10033000A3290B3A0319A829063A0319B029023A4E
:100340000319B629BB290130B400B5008321C129A6
:10035000B8010130B900DE200230B4006D20C1299F
:100360000130B4000230B5008321C129B80110303A
:10037000B900DE20C1290130B8003308B900DE2001
:10038000C1290800831603178C170C140000000005
:100390000318F12983120C087F390313AB000317EC
:1003A0000D080313AC0003170F080313AD002B084F
:1003B000B30095212C0803178D0003132D08031794
:1003C0008F0083168C170C14000000008312031397
:1003D000AA0BEB29EE2983160317F129102A83169D
:1003E000031783120C0D0E0D7F390313AB00031797
:1003F0000D080313AC0003170F080313AD002B08FF
:10040000B30095212C0803178D0003132D08031743
:100410008F008D0A03198F0A03100313AA0BC22938
:100420000800B2010408B1003210831B32142B0EF5
:10043000F038AD00AD07E23EAE00323EB0002B0812
:100440000F39AE07AE07B007E93EAF00AF07AF0701
:100450002A0E0F39AF07B007AF0DB00DB009B00DC0
:100460002A080F39B007AD0D0730AC000A30B007CD
:10047000AF03031C372AAF07AE03031C3B2AAE07AA
:10048000AD03031C3F2AAD07AC03031C432A2C30E9
:1004900084008313073031053113840730300402A0
:1004A000031931170008F700031D5E2A311B5E2A6D
:1004B000311A702AB1195E2A2030612AB115311221
:1004C0003030F707AB010408AA002B10831B2B1454
:1004D0007708B30095212A08840083132B1883170B
:1004E000840A311F4E2A8A110A12662B83160317BB
:1004F0008C170C14000000000318A62A83120C08A5
:100500007F390313AB0003170D080313AC00031767
:100510000F080313AD002B080C1E8C2A99002C0821
:1005200003178D0003132D0803178F0083168C17F4
:100530000C140000000083120313AA0BA02AA32AA4
:1005400083160317A62AC62A8316031783120C0DD7
:100550000E0D7F390313AB0003170D080313AC0016
:1005600003170F080313AD002B080C1EB52A9900C2
:100570002C0803178D0003132D0803178F008D0A15
:1005800003198F0A03100313AA0B762A8A110A1281
:10059000702BB2010408B1003210831B32142B0EF1
:1005A000F038AD00AD07E23EAE00323EB0002B08A1
:1005B0000F39AE07AE07B007E93EAF00AF07AF0790
:1005C0002A0E0F39AF07B007AF0DB00DB009B00D4F
:1005D0002A080F39B007AD0D0730AC000A30B0075C
:1005E000AF03031CEF2AAF07AE03031CF32AAE07C9
:1005F000AD03031CF72AAD07AC03031CFB2A2C3008
:10060000840083130730310531138407303004022E
:10061000031931170008F700031D162B311B162B89
:10062000311A1E2BB119162B2030192BB11531128E
:100630003030F70777080C1E1B2B9900840A311FF6
:10064000062B8A110A12772B840183131F3083052E
:10065000193083169900A6309800903083129800C4
:100660002D30A70083161F149F141F159F110730EC
:100670009C0083125B283A297B290030F8001F0870
:10068000C73978049F000630F700F70B452B0000B0
:100690001F151F19492B83161E088312A8001E0858
:1006A000A9000130B400B5008321413003178D004B
:1006B00000308F0003100C300313AA00C221103049
:1006C00084002908AB002808AA00112A4930031722
:1006D0008D0000308F0003100C300313AA00762A1F
:1006E000103084002908AB002808AA00C92A0D3060
:1006F0000C1E782B99000A300C1E7C2B99000130BF
:10070000B4000230B5008321523003178D00003051
:100710008F0003100E300313AA00C2212708B30074
:1007200095216430B4006D200C30B30095213D2B31
:02073000630064
:02400E00713F00
:00000001FF
;PIC16F877A
;CRC=4DC5  CREATED="18-Dic.-16 18:16"
