:1000000000308A0048280000FF00030E8301A10091
:100010000A08A0008A010408A2007708A300780853
:10002000A4007908A5007A08A600831383128B1E0A
:100030001B280B192C28220884002308F700240809
:10004000F8002508F9002608FA0020088A00210E89
:100050008300FF0E7F0E09008A110A122F288316D3
:100060008610023083128606833081000B118A11BC
:100070000A121B2883160108C03902388100833018
:10008000831281008B16C0308B048A110A12572804
:10009000840183131F30830583161F149F141F15BB
:1000A0009F1107309C000030860083123A285728A1
:0200B0006300EB
:02400E00713F00
:00000001FF
;PIC16F877A
;CRC=266E  CREATED="18-Dic.-16 17:35"
