:1000000002308A007C2A00000A108A100A11820736
:1000100028340C3401340634CC30E237D43263282F
:1000200065397500402661316F2AE531D032F23AE8
:100030000001C330EE30EC204E18A01EA012CC3AC6
:10004000000083161F1383121F179F1783169F1715
:1000500083121F1483161F109F141F159F158312E0
:100060008A110A12892A2D3084008313000803198B
:1000700047280130F800F701F70B3C28F80B3B2824
:100080004A30F700F70B42284528800B3928080032
:1000900034184C2808124D280816831608128312AB
:1000A000B41854288812552888168316881283128B
:1000B00034195C2808135D28081783160813831267
:1000C000B4196428881365288817831688130000DC
:1000D00083128515831685116D2883128511831669
:1000E000851183120800B5018316081600308312AB
:1000F000081A0130B5048316881600308312881A56
:100100000130F7000310F70D7708B50483160817C0
:1001100000308312081B0130F700F70DF70DFC309B
:10012000F7057708B5048316881700308312881BFB
:100130000130F700F70DF70DF70DF830F7057708E8
:10014000B5043508F80008008316851185120511DD
:1001500083128512831685120816881608178817C9
:100160008312051583160511000083128515831669
:1001700085110000831273207808B400851183165E
:1001800085110000831285158316851100008312E6
:1001900073207808B3008511831685110812881220
:1001A000081388138312340EF700F030F705770830
:1001B0003304F8007808B300B31FE0288316AC2896
:1001C000B108031DE5288512E628851683168512D9
:1001D000000083120511831605110000831285119A
:1001E000831685118312320EB3000F30B305330826
:1001F000B400482032080F39B300B400482008008A
:1002000083160812881208138813851185120511A8
:100210008312851283168512831205118316051128
:1002200083128511831685110F308312AD003320A0
:100230000130A3002308033C031C28290330B40029
:100240004820B40148200530AD003320A30A1A2904
:100250000230B4004820B40148200530AD003320FE
:10026000A3012308033C031C3E2923080420A40007
:10027000B1012408B200A420A30A31298A110A126C
:100280008A2A2E0B442947294030AF004829AF0164
:1002900001302D02AF072F088038B000B1013008BF
:1002A000B200A42008002C08073A031961290B3A70
:1002B00003196629063A03196E29023A03197429AB
:1002C00079290130AD00AE0041217F29B101013013
:1002D000B200A4200230AD0033207F290130AD00F0
:1002E0000230AE0041217F29B1011030B200A420BC
:1002F0007F290130B1002C08B200A4207F2908001A
:10030000831603178C170C140000000083120C08CE
:100310007F390319C4290313A30003170D0803131E
:10032000A40003170F080313A5002308AC005321F2
:10033000240803178D000313250803178F00831665
:100340008C170C140000000083120C0D0E0D7F3969
:100350000319C4290313A30003170D080313A400F2
:1003600003170F080313A5002308AC00532124082A
:1003700003178D000313250803178F008D0A031937
:100380008F0A03138029031703130800831603172A
:100390008C170C14000000000318F52983120C08B8
:1003A0007F390313A40003170D080313A5000317D7
:1003B0000F080313A6002408AC00532125080317D7
:1003C0008D000313260803178F0083168C170C1457
:1003D0000000000083120313A30BEF29F2298316F8
:1003E0000317F529142A8316031783120C0D0E0D1B
:1003F0007F390313A40003170D080313A500031787
:100400000F080313A6002408AC0053212508031786
:100410008D000313260803178F008D0A03198F0A16
:1004200003100313A30BC6298A110A12CC2AAB01AD
:100430000408AA002B10831B2B14240EF038A600EE
:10044000A607E23EA700323EA90024080F39A707FD
:10045000A707A907E93EA800A807A807230E0F3998
:10046000A807A907A80DA90DA909A90D23080F39E7
:10047000A907A60D0730A5000A30A907A803031C89
:100480003D2AA807A703031C412AA707A603031CAC
:10049000452AA607A503031C492A25308400831397
:1004A00007302A052A1384072930040203192A1762
:1004B0000008F700031D642A2A1B642A2A1A762AD8
:1004C000AA19642A2030672AAA152A123030F707A1
:1004D000A4010408A3002410831B24147708AC0093
:1004E000532123088400831324188317840A2A1FA6
:1004F000542A8A110A12D32A840183131F308305D8
:1005000083161F149F141F159F1107309C00831220
:10051000212800290C30AC0053210C3003178D002A
:1005200000308F00031380210230A300FA30AD00A9
:100530003320A30B962A0C30AC0053210030F80076
:100540001F08C73978049F000630F700F70BA62A6A
:1005500000001F151F19AA2A83161E088312A10066
:100560001E08A2000130AD00AE0041211230031779
:100570008D0000308F00031380210130AD00023068
:10058000AE004121193003178D0000308F00031099
:100590000B300313A300C629103084002208A400E6
:1005A0002108A300172A6430AD0033200C30AC00C2
:0605B00053219E2A6300A6
:02400E00713F00
:00000001FF
;PIC16F877A
;CRC=AAD4  CREATED="18-Dic.-16 20:06"
